S00D00006E52465F522E7372656360
S113000019C033C032C031C030C02FC02EC02DC083
S11300102CC02BC02AC029C028C027C026C025C098
S113002024C023C022C021C020C01FC01EC01DC0C8
S11300301CC01BC011241FBECFEFD2E0DEBFCDBF5A
S113004011E0A0E0B1E0EEEBF3E002C005900D9208
S1130050AA35B107D9F721E0AAE5B1E001C01D92A4
S1130060AE37B207E1F7FDD0A8C1CACFEF92FF9235
S11300700F931F93CF93DF9300D0CDB7DEB7142F28
S11300802998806269837A834AD16981062FE62E92
S11300907A81F72E8E2D801B811728F4F701819128
S11300A07F013DD1F7CF299A0F900F90DF91CF9127
S11300B01F910F91FF90EF900895EF92FF920F938D
S11300C01F93CF93DF9300D0CDB7DEB7142F2998B9
S11300D069837A8324D16981062FE62E7A81F72EEB
S11300E08E2D801B811730F48FEF19D1F701819386
S11300F07F01F6CF299A0F900F90DF91CF911F9136
S11301000F91FF90EF900895CF932FE789EA93E042
S1130110215080409040E1F700C0000010925D0142
S113012041E06DE571E081E0A1DF82E080935D0153
S113013041E06DE571E09ADF81E080935D0141E08B
S11301406DE571E083E092DF10925D0141E06DE5C1
S113015071E084E08BDF83E080935D0141E06DE535
S113016071E085E083DFC0E2C0935D0141E06DE5AD
S113017071E086E07BDF45E060E071E08BE076DFF4
S1130180C0935D0141E06DE571E082E16FDF8BE3D7
S113019080935D0141E06DE571E080E067DF8FE908
S11301A09FE00197F1F700C00000289A8BE291E0EC
S11301B00197F1F700C0000029988FEFB0D0809329
S11301C05D01299A41E06DE571E087E0CF914ECF62
S11301D00F931F93CF93DF93182F092F10925A0177
S11301E029988FEF9CD080935D01299A80915D01BD
S11301F086FD02C080E030C02898299881E68FD01F
S113020010925A01C12FD02F80915A01803248F4A4
S11302108FEF85D0899380915A018F5F80935A0123
S1130220F3CF299A40E060E070E082EE1FDF40E007
S113023060E070E081EE1ADF289A41E06DE571E03C
S113024087E03BDF80915D01806480935D0141E044
S11302506DE571E087E00ADFDF91CF911F910F9187
S113026008952FEF80E792E0215080409040E1F71D
S113027000C0000084B18F6284B985B1866385B9FA
S113028087B187B988B18F6388B98AB182618AB925
S11302908BB18D6F8BB960E076E980E090E045D05A
S11302A086E591E05DD085E091E05AD082E291E06C
S11302B057D02FD029DF8EE491E052D078942FEFDD
S11302C089E698E1215080409040E1F700C00000A9
S11302D05C984A99FECF5C9A8EE591E079DF1092A2
S11302E05C0110925B0180915B0190915C01803212
S11302F0910574F7FC01E25AFE4F80812AD0809167
S11303005B0190915C01019690935C0180935B0189
S1130310EACF8DB5806C8DBD80E58CBD08958EBD12
S11303200DB407FEFDCF8EB508959B01AC0160E2CC
S113033071EA87E090E01FD0215031093093C50065
S11303402093C40088E98093C10086E08093C200B2
S113035008959091C00095FFFCCF8093C600089546
S1130360CF93DF93EC018991882311F0F2DFFBCF67
S1130370DF91CF910895A1E21A2EAA1BBB1BFD01A8
S11303800DC0AA1FBB1FEE1FFF1FA217B307E40770
S1130390F50720F0A21BB30BE40BF50B661F771FC8
S11303A0881F991F1A9469F76095709580959095A8
S11103B09B01AC01BD01CF010895F894FFCF6D
S11303BEC2C2C2C2C2526F7343616E5361742032A1
S11303CE2E342047487A2072656365697665720D0E
S11303DE0A004D6164652062792022496E74656C51
S11303EE6C656374222066726F6D2046656F646F50
S11303FE7369612C204372696D65610D0A00526543
S10D040E6164792E2E2E0D0A000001
S9030000FC
