:1000000019C033C032C031C030C02FC02EC02DC087
:100010002CC02BC02AC029C028C027C026C025C09C
:1000200024C023C022C021C020C01FC01EC01DC0CC
:100030001CC01BC011241FBECFEFD2E0DEBFCDBF5E
:1000400011E0A0E0B1E0E6E9F3E002C005900D9216
:10005000AA35B107D9F721E0AAE5B1E001C01D92A8
:10006000AE37B207E1F7E5D094C1CACFFF920F9344
:100070001F93CF93DF93F62E172F042F29988062BA
:1000800035D1002341F0CF2DD12F10E089912ED111
:100090001F5F1013FBCF299ADF91CF911F910F9112
:1000A000FF900895FF920F931F93CF93DF93F62E47
:1000B000172F042F29981AD1002349F0CF2DD12FC3
:1000C00010E08FEF13D189931F5F1013FACF299A95
:1000D000DF91CF911F910F91FF900895CF932FE75C
:1000E00089EA93E0215080409040E1F700C0000091
:1000F00010925D0141E06DE571E081E0B7DF82E0E3
:1001000080935D0141E06DE571E0B0DF81E08093B7
:100110005D0141E06DE571E083E0A8DF10925D01D3
:1001200041E06DE571E084E0A1DF83E080935D0153
:1001300041E06DE571E085E099DFC0E2C0935D01CB
:1001400041E06DE571E086E091DF45E060E071E05F
:100150008BE08CDFC0935D0141E06DE571E082E1F1
:1001600085DF8BE380935D0141E06DE571E080E028
:100170007DDF8FE99FE00197F1F700C00000289A2A
:100180008BE291E00197F1F700C0000029988FEF12
:10019000ADD080935D01299A41E06DE571E087E083
:1001A00065DFCF9108950F931F93CF93DF93082FAF
:1001B000192F10925A0129988FEF98D080935D01E2
:1001C000299A20915D0126FD02C080E02DC028986B
:1001D000299881E68BD010925A01C02FD12F8FEF32
:1001E00085D0899380915A018F5F80935A01803224
:1001F000B0F3299A40E060E070E082EE37DF40E043
:1002000060E070E081EE32DF289A41E06DE571E058
:1002100087E048DF80915D01806480935D0141E06B
:100220006DE571E087E022DFDF91CF911F910F91A3
:1002300008952FEF80E792E0215080409040E1F751
:1002400000C0000084B18F6284B985B1866385B92E
:1002500087B187B988B18F6388B98AB182618AB959
:100260008BB18D6F8BB960E076E980E090E044D08F
:1002700086E591E05DD085E091E05AD082E291E0A0
:1002800057D02ED02BDF8EE491E052D078942FEF10
:1002900089E698E1215080409040E1F700C00000DD
:1002A0005C984A99FECF5C9A8EE591E07CDF1092D3
:1002B0005C0110925B0180E090E0FC01E25AFE4F8D
:1002C00080812ED080915B0190915C01019690938A
:1002D0005C0180935B01803291057CF35C98E1CFF7
:1002E0008DB5806C8DBD80E58CBD08958EBD0DB43F
:1002F00007FEFDCF8EB508959B01AC0160E271EA67
:1003000087E090E024D0215031093093C50020933C
:10031000C40088E98093C10086E08093C2000895FC
:10032000E0ECF0E0908195FFFDCF8093C60008954A
:10033000CF93DF93EC012196FC018081882321F08B
:10034000EFDF89918111FCCFDF91CF910895A1E278
:100350001A2EAA1BBB1BFD010DC0AA1FBB1FEE1F3F
:10036000FF1FA217B307E407F50720F0A21BB30B8A
:10037000E40BF50B661F771F881F991F1A9469F706
:1003800060957095809590959B01AC01BD01CF0162
:060390000895F894FFCF70
:10039600C2C2C2C2C2526F7343616E5361742032CD
:1003A6002E342047487A2072656365697665720D3A
:1003B6000A004D6164652062792022496E74656C7D
:1003C6006C656374222066726F6D2046656F646F7C
:1003D6007369612C204372696D65610D0A0052656F
:0A03E6006164792E2E2E0D0A00002E
:00000001FF
